{
  "_format": "hh-sol-artifact-1",
  "contractName": "Messages",
  "sourceName": "contracts/Messages.sol",
  "abi": [
    {
      "anonymous": false,
      "inputs": [
        {
          "components": [
            {
              "internalType": "address",
              "name": "sender",
              "type": "address"
            },
            {
              "internalType": "address",
              "name": "destination",
              "type": "address"
            },
            {
              "internalType": "string",
              "name": "message",
              "type": "string"
            },
            {
              "internalType": "uint256",
              "name": "timestamp",
              "type": "uint256"
            },
            {
              "internalType": "bool",
              "name": "isPublic",
              "type": "bool"
            }
          ],
          "indexed": false,
          "internalType": "struct Messages.Message",
          "name": "",
          "type": "tuple"
        }
      ],
      "name": "NewMessage",
      "type": "event"
    },
    {
      "anonymous": false,
      "inputs": [
        {
          "indexed": true,
          "internalType": "address",
          "name": "previousOwner",
          "type": "address"
        },
        {
          "indexed": true,
          "internalType": "address",
          "name": "newOwner",
          "type": "address"
        }
      ],
      "name": "OwnershipTransferred",
      "type": "event"
    },
    {
      "inputs": [],
      "name": "InboxCounter",
      "outputs": [
        {
          "internalType": "uint256",
          "name": "",
          "type": "uint256"
        }
      ],
      "stateMutability": "view",
      "type": "function"
    },
    {
      "inputs": [],
      "name": "MessagesCounter",
      "outputs": [
        {
          "internalType": "uint256",
          "name": "",
          "type": "uint256"
        }
      ],
      "stateMutability": "view",
      "type": "function"
    },
    {
      "inputs": [
        {
          "internalType": "uint256",
          "name": "_inboxMessage",
          "type": "uint256"
        }
      ],
      "name": "ReadInbox",
      "outputs": [
        {
          "components": [
            {
              "internalType": "address",
              "name": "sender",
              "type": "address"
            },
            {
              "internalType": "address",
              "name": "destination",
              "type": "address"
            },
            {
              "internalType": "string",
              "name": "message",
              "type": "string"
            },
            {
              "internalType": "uint256",
              "name": "timestamp",
              "type": "uint256"
            },
            {
              "internalType": "bool",
              "name": "isPublic",
              "type": "bool"
            }
          ],
          "internalType": "struct Messages.Message",
          "name": "",
          "type": "tuple"
        }
      ],
      "stateMutability": "view",
      "type": "function"
    },
    {
      "inputs": [
        {
          "internalType": "uint256",
          "name": "_nMessage",
          "type": "uint256"
        }
      ],
      "name": "ReadMessage",
      "outputs": [
        {
          "components": [
            {
              "internalType": "address",
              "name": "sender",
              "type": "address"
            },
            {
              "internalType": "address",
              "name": "destination",
              "type": "address"
            },
            {
              "internalType": "string",
              "name": "message",
              "type": "string"
            },
            {
              "internalType": "uint256",
              "name": "timestamp",
              "type": "uint256"
            },
            {
              "internalType": "bool",
              "name": "isPublic",
              "type": "bool"
            }
          ],
          "internalType": "struct Messages.Message",
          "name": "",
          "type": "tuple"
        }
      ],
      "stateMutability": "view",
      "type": "function"
    },
    {
      "inputs": [
        {
          "internalType": "uint256",
          "name": "_sentMessage",
          "type": "uint256"
        }
      ],
      "name": "ReadSent",
      "outputs": [
        {
          "components": [
            {
              "internalType": "address",
              "name": "sender",
              "type": "address"
            },
            {
              "internalType": "address",
              "name": "destination",
              "type": "address"
            },
            {
              "internalType": "string",
              "name": "message",
              "type": "string"
            },
            {
              "internalType": "uint256",
              "name": "timestamp",
              "type": "uint256"
            },
            {
              "internalType": "bool",
              "name": "isPublic",
              "type": "bool"
            }
          ],
          "internalType": "struct Messages.Message",
          "name": "",
          "type": "tuple"
        }
      ],
      "stateMutability": "view",
      "type": "function"
    },
    {
      "inputs": [
        {
          "internalType": "address",
          "name": "_destination",
          "type": "address"
        },
        {
          "internalType": "string",
          "name": "_message",
          "type": "string"
        },
        {
          "internalType": "bool",
          "name": "_isPublic",
          "type": "bool"
        }
      ],
      "name": "SendMessage",
      "outputs": [],
      "stateMutability": "nonpayable",
      "type": "function"
    },
    {
      "inputs": [],
      "name": "SentsCounter",
      "outputs": [
        {
          "internalType": "uint256",
          "name": "",
          "type": "uint256"
        }
      ],
      "stateMutability": "view",
      "type": "function"
    },
    {
      "inputs": [
        {
          "internalType": "string",
          "name": "_username",
          "type": "string"
        }
      ],
      "name": "SetNickname",
      "outputs": [],
      "stateMutability": "nonpayable",
      "type": "function"
    },
    {
      "inputs": [
        {
          "internalType": "address",
          "name": "",
          "type": "address"
        }
      ],
      "name": "accounts",
      "outputs": [
        {
          "internalType": "string",
          "name": "nickname",
          "type": "string"
        },
        {
          "internalType": "uint256",
          "name": "counterSents",
          "type": "uint256"
        },
        {
          "internalType": "uint256",
          "name": "counterInbox",
          "type": "uint256"
        }
      ],
      "stateMutability": "view",
      "type": "function"
    },
    {
      "inputs": [
        {
          "internalType": "uint256",
          "name": "",
          "type": "uint256"
        }
      ],
      "name": "messages",
      "outputs": [
        {
          "internalType": "address",
          "name": "sender",
          "type": "address"
        },
        {
          "internalType": "address",
          "name": "destination",
          "type": "address"
        },
        {
          "internalType": "string",
          "name": "message",
          "type": "string"
        },
        {
          "internalType": "uint256",
          "name": "timestamp",
          "type": "uint256"
        },
        {
          "internalType": "bool",
          "name": "isPublic",
          "type": "bool"
        }
      ],
      "stateMutability": "view",
      "type": "function"
    },
    {
      "inputs": [],
      "name": "owner",
      "outputs": [
        {
          "internalType": "address",
          "name": "",
          "type": "address"
        }
      ],
      "stateMutability": "view",
      "type": "function"
    },
    {
      "inputs": [],
      "name": "renounceOwnership",
      "outputs": [],
      "stateMutability": "nonpayable",
      "type": "function"
    },
    {
      "inputs": [
        {
          "internalType": "address",
          "name": "newOwner",
          "type": "address"
        }
      ],
      "name": "transferOwnership",
      "outputs": [],
      "stateMutability": "nonpayable",
      "type": "function"
    }
  ],
  "bytecode": "0x608060405234801561001057600080fd5b5061002d61002261003260201b60201c565b61003a60201b60201c565b6100fe565b600033905090565b60008060009054906101000a900473ffffffffffffffffffffffffffffffffffffffff169050816000806101000a81548173ffffffffffffffffffffffffffffffffffffffff021916908373ffffffffffffffffffffffffffffffffffffffff1602179055508173ffffffffffffffffffffffffffffffffffffffff168173ffffffffffffffffffffffffffffffffffffffff167f8be0079c531659141344cd1fd0a4f28419497f9722a3daafe3b4186f6b6457e060405160405180910390a35050565b611d358061010d6000396000f3fe608060405234801561001057600080fd5b50600436106100cf5760003560e01c8063a0e3e7621161008c578063ed46305a11610066578063ed46305a1461022c578063ed4af26a14610248578063f2fde38b14610266578063fe612e2f14610282576100cf565b8063a0e3e762146101ae578063d0721df2146101de578063ea2ed6b0146101fc576100cf565b80630d80fefd146100d457806351e828c214610108578063546a7645146101385780635e5c06e214610154578063715018a6146101865780638da5cb5b14610190575b600080fd5b6100ee60048036038101906100e991906115b9565b6102a0565b6040516100ff9594939291906117ee565b60405180910390f35b610122600480360381019061011d91906115b9565b6103ab565b60405161012f9190611926565b60405180910390f35b610152600480360381019061014d9190611578565b6105ff565b005b61016e600480360381019061016991906114e8565b610659565b60405161017d93929190611848565b60405180910390f35b61018e61070b565b005b610198610793565b6040516101a591906117d3565b60405180910390f35b6101c860048036038101906101c391906115b9565b6107bc565b6040516101d59190611926565b60405180910390f35b6101e6610a10565b6040516101f39190611948565b60405180910390f35b610216600480360381019061021191906115b9565b610a1a565b6040516102239190611926565b60405180910390f35b61024660048036038101906102419190611511565b610c38565b005b6102506110e9565b60405161025d9190611948565b60405180910390f35b610280600480360381019061027b91906114e8565b611133565b005b61028a61122b565b6040516102979190611948565b60405180910390f35b60026020528060005260406000206000915090508060000160009054906101000a900473ffffffffffffffffffffffffffffffffffffffff16908060010160009054906101000a900473ffffffffffffffffffffffffffffffffffffffff169080600201805461030f90611ac6565b80601f016020809104026020016040519081016040528092919081815260200182805461033b90611ac6565b80156103885780601f1061035d57610100808354040283529160200191610388565b820191906000526020600020905b81548152906001019060200180831161036b57829003601f168201915b5050505050908060030154908060040160009054906101000a900460ff16905085565b6103b3611341565b600160003373ffffffffffffffffffffffffffffffffffffffff1673ffffffffffffffffffffffffffffffffffffffff168152602001908152602001600020600201548210610437576040517f08c379a000000000000000000000000000000000000000000000000000000000815260040161042e90611906565b60405180910390fd5b600160003373ffffffffffffffffffffffffffffffffffffffff1673ffffffffffffffffffffffffffffffffffffffff16815260200190815260200160002060010160008381526020019081526020016000206040518060a00160405290816000820160009054906101000a900473ffffffffffffffffffffffffffffffffffffffff1673ffffffffffffffffffffffffffffffffffffffff1673ffffffffffffffffffffffffffffffffffffffff1681526020016001820160009054906101000a900473ffffffffffffffffffffffffffffffffffffffff1673ffffffffffffffffffffffffffffffffffffffff1673ffffffffffffffffffffffffffffffffffffffff16815260200160028201805461055190611ac6565b80601f016020809104026020016040519081016040528092919081815260200182805461057d90611ac6565b80156105ca5780601f1061059f576101008083540402835291602001916105ca565b820191906000526020600020905b8154815290600101906020018083116105ad57829003601f168201915b50505050508152602001600382015481526020016004820160009054906101000a900460ff1615151515815250509050919050565b80600160003373ffffffffffffffffffffffffffffffffffffffff1673ffffffffffffffffffffffffffffffffffffffff168152602001908152602001600020600001908051906020019061065592919061139e565b5050565b600160205280600052604060002060009150905080600001805461067c90611ac6565b80601f01602080910402602001604051908101604052809291908181526020018280546106a890611ac6565b80156106f55780601f106106ca576101008083540402835291602001916106f5565b820191906000526020600020905b8154815290600101906020018083116106d857829003601f168201915b5050505050908060020154908060040154905083565b610713611275565b73ffffffffffffffffffffffffffffffffffffffff16610731610793565b73ffffffffffffffffffffffffffffffffffffffff1614610787576040517f08c379a000000000000000000000000000000000000000000000000000000000815260040161077e906118c6565b60405180910390fd5b610791600061127d565b565b60008060009054906101000a900473ffffffffffffffffffffffffffffffffffffffff16905090565b6107c4611341565b600160003373ffffffffffffffffffffffffffffffffffffffff1673ffffffffffffffffffffffffffffffffffffffff168152602001908152602001600020600401548210610848576040517f08c379a000000000000000000000000000000000000000000000000000000000815260040161083f90611906565b60405180910390fd5b600160003373ffffffffffffffffffffffffffffffffffffffff1673ffffffffffffffffffffffffffffffffffffffff16815260200190815260200160002060030160008381526020019081526020016000206040518060a00160405290816000820160009054906101000a900473ffffffffffffffffffffffffffffffffffffffff1673ffffffffffffffffffffffffffffffffffffffff1673ffffffffffffffffffffffffffffffffffffffff1681526020016001820160009054906101000a900473ffffffffffffffffffffffffffffffffffffffff1673ffffffffffffffffffffffffffffffffffffffff1673ffffffffffffffffffffffffffffffffffffffff16815260200160028201805461096290611ac6565b80601f016020809104026020016040519081016040528092919081815260200182805461098e90611ac6565b80156109db5780601f106109b0576101008083540402835291602001916109db565b820191906000526020600020905b8154815290600101906020018083116109be57829003601f168201915b50505050508152602001600382015481526020016004820160009054906101000a900460ff1615151515815250509050919050565b6000600354905090565b610a22611341565b6000600260008481526020019081526020016000206040518060a00160405290816000820160009054906101000a900473ffffffffffffffffffffffffffffffffffffffff1673ffffffffffffffffffffffffffffffffffffffff1673ffffffffffffffffffffffffffffffffffffffff1681526020016001820160009054906101000a900473ffffffffffffffffffffffffffffffffffffffff1673ffffffffffffffffffffffffffffffffffffffff1673ffffffffffffffffffffffffffffffffffffffff168152602001600282018054610afe90611ac6565b80601f0160208091040260200160405190810160405280929190818152602001828054610b2a90611ac6565b8015610b775780601f10610b4c57610100808354040283529160200191610b77565b820191906000526020600020905b815481529060010190602001808311610b5a57829003601f168201915b50505050508152602001600382015481526020016004820160009054906101000a900460ff16151515158152505090506003548310610beb576040517f08c379a0000000000000000000000000000000000000000000000000000000008152600401610be290611906565b60405180910390fd5b8060800151610c2f576040517f08c379a0000000000000000000000000000000000000000000000000000000008152600401610c26906118e6565b60405180910390fd5b80915050919050565b8273ffffffffffffffffffffffffffffffffffffffff163373ffffffffffffffffffffffffffffffffffffffff161415610ca7576040517f08c379a0000000000000000000000000000000000000000000000000000000008152600401610c9e906118a6565b60405180910390fd5b6000600160003373ffffffffffffffffffffffffffffffffffffffff1673ffffffffffffffffffffffffffffffffffffffff16815260200190815260200160002090506000600160008673ffffffffffffffffffffffffffffffffffffffff1673ffffffffffffffffffffffffffffffffffffffff168152602001908152602001600020905060006040518060a001604052803373ffffffffffffffffffffffffffffffffffffffff1681526020018773ffffffffffffffffffffffffffffffffffffffff1681526020018681526020014281526020018515158152509050808360010160008560020154815260200190815260200160002060008201518160000160006101000a81548173ffffffffffffffffffffffffffffffffffffffff021916908373ffffffffffffffffffffffffffffffffffffffff16021790555060208201518160010160006101000a81548173ffffffffffffffffffffffffffffffffffffffff021916908373ffffffffffffffffffffffffffffffffffffffff1602179055506040820151816002019080519060200190610e4a92919061139e565b506060820151816003015560808201518160040160006101000a81548160ff0219169083151502179055509050506001836002016000828254610e8d91906119e6565b92505081905550808260030160008460040154815260200190815260200160002060008201518160000160006101000a81548173ffffffffffffffffffffffffffffffffffffffff021916908373ffffffffffffffffffffffffffffffffffffffff16021790555060208201518160010160006101000a81548173ffffffffffffffffffffffffffffffffffffffff021916908373ffffffffffffffffffffffffffffffffffffffff1602179055506040820151816002019080519060200190610f5892919061139e565b506060820151816003015560808201518160040160006101000a81548160ff0219169083151502179055509050506001826004016000828254610f9b91906119e6565b925050819055508060026000600354815260200190815260200160002060008201518160000160006101000a81548173ffffffffffffffffffffffffffffffffffffffff021916908373ffffffffffffffffffffffffffffffffffffffff16021790555060208201518160010160006101000a81548173ffffffffffffffffffffffffffffffffffffffff021916908373ffffffffffffffffffffffffffffffffffffffff160217905550604082015181600201908051906020019061106292919061139e565b506060820151816003015560808201518160040160006101000a81548160ff0219169083151502179055509050506001600360008282546110a391906119e6565b925050819055507fd72cc0c01c1873577e5c366b1f90dad16f40a3513d9ee454b95f06537d1e6dda816040516110d99190611926565b60405180910390a1505050505050565b6000600160003373ffffffffffffffffffffffffffffffffffffffff1673ffffffffffffffffffffffffffffffffffffffff16815260200190815260200160002060020154905090565b61113b611275565b73ffffffffffffffffffffffffffffffffffffffff16611159610793565b73ffffffffffffffffffffffffffffffffffffffff16146111af576040517f08c379a00000000000000000000000000000000000000000000000000000000081526004016111a6906118c6565b60405180910390fd5b600073ffffffffffffffffffffffffffffffffffffffff168173ffffffffffffffffffffffffffffffffffffffff16141561121f576040517f08c379a000000000000000000000000000000000000000000000000000000000815260040161121690611886565b60405180910390fd5b6112288161127d565b50565b6000600160003373ffffffffffffffffffffffffffffffffffffffff1673ffffffffffffffffffffffffffffffffffffffff16815260200190815260200160002060040154905090565b600033905090565b60008060009054906101000a900473ffffffffffffffffffffffffffffffffffffffff169050816000806101000a81548173ffffffffffffffffffffffffffffffffffffffff021916908373ffffffffffffffffffffffffffffffffffffffff1602179055508173ffffffffffffffffffffffffffffffffffffffff168173ffffffffffffffffffffffffffffffffffffffff167f8be0079c531659141344cd1fd0a4f28419497f9722a3daafe3b4186f6b6457e060405160405180910390a35050565b6040518060a00160405280600073ffffffffffffffffffffffffffffffffffffffff168152602001600073ffffffffffffffffffffffffffffffffffffffff16815260200160608152602001600081526020016000151581525090565b8280546113aa90611ac6565b90600052602060002090601f0160209004810192826113cc5760008555611413565b82601f106113e557805160ff1916838001178555611413565b82800160010185558215611413579182015b828111156114125782518255916020019190600101906113f7565b5b5090506114209190611424565b5090565b5b8082111561143d576000816000905550600101611425565b5090565b600061145461144f84611988565b611963565b90508281526020810184848401111561146c57600080fd5b611477848285611a84565b509392505050565b60008135905061148e81611cba565b92915050565b6000813590506114a381611cd1565b92915050565b600082601f8301126114ba57600080fd5b81356114ca848260208601611441565b91505092915050565b6000813590506114e281611ce8565b92915050565b6000602082840312156114fa57600080fd5b60006115088482850161147f565b91505092915050565b60008060006060848603121561152657600080fd5b60006115348682870161147f565b935050602084013567ffffffffffffffff81111561155157600080fd5b61155d868287016114a9565b925050604061156e86828701611494565b9150509250925092565b60006020828403121561158a57600080fd5b600082013567ffffffffffffffff8111156115a457600080fd5b6115b0848285016114a9565b91505092915050565b6000602082840312156115cb57600080fd5b60006115d9848285016114d3565b91505092915050565b6115eb81611a3c565b82525050565b6115fa81611a3c565b82525050565b61160981611a4e565b82525050565b61161881611a4e565b82525050565b6000611629826119b9565b61163381856119c4565b9350611643818560208601611a93565b61164c81611bb6565b840191505092915050565b6000611662826119b9565b61166c81856119d5565b935061167c818560208601611a93565b61168581611bb6565b840191505092915050565b600061169d6026836119d5565b91506116a882611bc7565b604082019050919050565b60006116c06014836119d5565b91506116cb82611c16565b602082019050919050565b60006116e36020836119d5565b91506116ee82611c3f565b602082019050919050565b60006117066017836119d5565b915061171182611c68565b602082019050919050565b6000611729601a836119d5565b915061173482611c91565b602082019050919050565b600060a08301600083015161175760008601826115e2565b50602083015161176a60208601826115e2565b5060408301518482036040860152611782828261161e565b915050606083015161179760608601826117b5565b5060808301516117aa6080860182611600565b508091505092915050565b6117be81611a7a565b82525050565b6117cd81611a7a565b82525050565b60006020820190506117e860008301846115f1565b92915050565b600060a08201905061180360008301886115f1565b61181060208301876115f1565b81810360408301526118228186611657565b905061183160608301856117c4565b61183e608083018461160f565b9695505050505050565b600060608201905081810360008301526118628186611657565b905061187160208301856117c4565b61187e60408301846117c4565b949350505050565b6000602082019050818103600083015261189f81611690565b9050919050565b600060208201905081810360008301526118bf816116b3565b9050919050565b600060208201905081810360008301526118df816116d6565b9050919050565b600060208201905081810360008301526118ff816116f9565b9050919050565b6000602082019050818103600083015261191f8161171c565b9050919050565b60006020820190508181036000830152611940818461173f565b905092915050565b600060208201905061195d60008301846117c4565b92915050565b600061196d61197e565b90506119798282611af8565b919050565b6000604051905090565b600067ffffffffffffffff8211156119a3576119a2611b87565b5b6119ac82611bb6565b9050602081019050919050565b600081519050919050565b600082825260208201905092915050565b600082825260208201905092915050565b60006119f182611a7a565b91506119fc83611a7a565b9250827fffffffffffffffffffffffffffffffffffffffffffffffffffffffffffffffff03821115611a3157611a30611b29565b5b828201905092915050565b6000611a4782611a5a565b9050919050565b60008115159050919050565b600073ffffffffffffffffffffffffffffffffffffffff82169050919050565b6000819050919050565b82818337600083830152505050565b60005b83811015611ab1578082015181840152602081019050611a96565b83811115611ac0576000848401525b50505050565b60006002820490506001821680611ade57607f821691505b60208210811415611af257611af1611b58565b5b50919050565b611b0182611bb6565b810181811067ffffffffffffffff82111715611b2057611b1f611b87565b5b80604052505050565b7f4e487b7100000000000000000000000000000000000000000000000000000000600052601160045260246000fd5b7f4e487b7100000000000000000000000000000000000000000000000000000000600052602260045260246000fd5b7f4e487b7100000000000000000000000000000000000000000000000000000000600052604160045260246000fd5b6000601f19601f8301169050919050565b7f4f776e61626c653a206e6577206f776e657220697320746865207a65726f206160008201527f6464726573730000000000000000000000000000000000000000000000000000602082015250565b7f43616e2774207465787420796f757273656c6621000000000000000000000000600082015250565b7f4f776e61626c653a2063616c6c6572206973206e6f7420746865206f776e6572600082015250565b7f546865206d657373616765206973207072697661746521000000000000000000600082015250565b7f546865206d65737361676520646f65736e277420657869737421000000000000600082015250565b611cc381611a3c565b8114611cce57600080fd5b50565b611cda81611a4e565b8114611ce557600080fd5b50565b611cf181611a7a565b8114611cfc57600080fd5b5056fea2646970667358221220a72d5eb42e6305f11e7249e9b245dde433a022a592ba0fe5959ef6a9f03eb11564736f6c63430008010033",
  "linkReferences": {},
  "deployedLinkReferences": {}
}